:060000000A128A11ED2F27
:100BE600831603130815881508003F3406345B3452
:100BF6004F3466346D347D3407347F346F34773444
:100C06007C3439345E34793471347E088A007F0846
:100C1600820008260A128A118000840A04087D06CA
:100C260003190034FF0A0319FE0A0C2E700871041A
:100C360003190800C730F200202EF20B1F2E232EB8
:100C4600242E0130F0020030031CF103F102192EAC
:100C5600F201831203130819352E3E080319352EA7
:100C6600F201F20A7208F0007008F100003008196B
:100C76000130BE0071080800F20183120313881DBB
:100C8600492E3D08031D492EF201F20A7208F000B2
:100C96007008F100003088190130BD0071080800A5
:100CA6008316031789018316031386018813081315
:100CB6008312031388170817FF308600F430F000FC
:100CC6000130F1000A128A1119260A128A118312BA
:100CD60003138601F430F0000130F1000A128A1184
:100CE60019260A128A11FF30831203138600F43084
:100CF600F0000130F1000A128A1119260A128A112F
:100D0600831203138601F430F0000130F1000A1259
:100D16008A111926080083120313B101FC1F9A2EAB
:100D2600FB09FC09FB0A0319FC0AB101B10AFA1F07
:100D3600A12EF909FA09F90A0319FA0A79087A04B7
:100D46000319CE2EB001B00AFA1BB52E01300310DE
:100D5600F90DFA0DFF3E031DAA2E0130FD007D0898
:100D6600B007A72E7A087C02031DBB2E79087B02EA
:100D7600031CC32E7908FB027A08031CFC03FC0241
:100D860001300310FA0CF90CFF3E031DC42E01308E
:100D9600B002031DB52E31080319D62EFB09FC0936
:100DA600FB0A0319FC0A7C08FA007B08F900080014
:100DB600F601F11FE52EF009F109F00A0319F10A0F
:100DC600F601F60AF31FF02EF209F309F20A0319E7
:100DD600F30A0130F4007408F606F701F80170080A
:100DE60071040319272FF501F50AF11B062F0130AF
:100DF6000310F00DF10DFF3E031DFB2E0130F40034
:100E06007408F507F82E01300310F70DF80DFF3EB4
:100E1600031D072F71087302031D132F700872023A
:100E2600031C1C2F7008F2027108031CF303F30263
:100E3600771401300310F10CF00CFF3E031D1D2F3B
:100E46000130F502031D062F760803192F2FF70927
:100E5600F809F70A0319F80A7808F1007708F0008C
:100E6600080083120313B4007B2F88130A30F9009D
:100E76000030FA003408B200B3013208FB00330830
:100E8600FC000A128A118E260A128A117908203E5F
:100E96008400831300088312031386000817832F28
:100EA60008130A30F9000030FA000A30F00000306A
:100EB600F1003408B200B3013208F2003308F3003F
:100EC6000A128A11DB260A128A117108FC007008C0
:100ED600FB000A128A118E260A128A117908203E10
:100EE6008400831300088312031386008817832F58
:100EF6003C08003A0319382F013A0319532F832F60
:100F06000130B2003208BC073C080139B30033088F
:100F1600BC00080083120313BB010A128A11532670
:100F26000A128A110A128A11F3250A128A118312E9
:100F360003133B080A128A1134270A128A110A126D
:100F46008A113F260A128A11003A0319C62F643005
:100F5600F9000030FA00013083120313B50035089A
:100F6600BB073B08B600B7013608FB003708FC0094
:100F76000A128A118E260A128A117908831203131D
:100F8600B8003808BB000A128A112B260A128A11E9
:100F9600003A0319E32F831203133B080319DB2FCF
:100FA6003B08FF3EB900FF3003180030BA00DF2FC0
:100FB6006330B9000030BA003908B5003508BB0007
:100FC6000130F0000030F1000A128A1119260A12C7
:100FD6008A119A2F83133030FD000530FE00F83059
:100FE600FF00203084000A128A110C26BC01BD01C4
:0A0FF600BE0183010A128A118D2F3B
:02400E00D4EFED
:00000001FF
